S00B00005350492E737265632D
S11300000C942A000C9434000C9434000C943400A6
S11300100C9434000C9434000C9434000C9434008C
S11300200C9434000C9434000C9434000C9434007C
S11300300C9434000C9434000C9434000C9434006C
S11300400C9434000C9434000C9434000C9434005C
S11300500C94340011241FBECFE5D8E0DEBFCDBF21
S11300600E9446000C94AC000C940000BC9ABF9A09
S1130070BD9ABE9881E58DB90895C4988FB9779BD0
S1130080FECF6FB9779BFECFC49A08950E943600C5
S11300906FEF89E00E943D006FEF8AE00E943D000F
S11300A067EF8BE00E943D0061E08CE00E943D0020
S11300B000E010E011C0CAE0612F88E00E943D001A
S11300C0C150D1F71F5F2FE986E891E021508040AD
S11300D09040E1F700C000001A3068F3CAE0D0E0B5
S11300E0602F88E00E943D0061E087E00E943D00AF
S11300F02197B1F70F5F1A3029F50A3019F52FE966
S113010086E891E0215080409040E1F700C0000073
S113011060E088E00E943D0062E087E00E943D00CC
S11301202FE986E891E0215080409040E1F700C03B
S1130130000060E088E00E943D0062E087E00E94E9
S11301403D00EECF2FE986E891E0215080409040B9
S10F0150E1F700C00000C0CFF894FFCF1E
S9030000FC
