S00F0000447269766572732E7372656336
S11300000C942A000C9447000C9447000C9447006D
S11300100C9447000C9447000C9447000C94470040
S11300200C9447000C9447000C9447000C94470030
S11300300C9447000C9447000C9447000C94470020
S11300400C9447000C9447000C9447000C94470010
S11300500C94470011241FBECFE5D8E0DEBFCDBF0E
S113006010E0A0E6B0E0EAECF2E002C005900D92E8
S1130070AE37B107D9F720E0AEE7B0E001C01D927A
S1130080A038B207E1F70E943F010C9463010C947D
S11300900000413061F4FC0121E030E002C0220F95
S11300A0331F6A95E2F78291282B2083089521E07B
S11300B030E002C0220F331F6A95E2F7622F609589
S11300C0FC01529156235083411108C0FC01308138
S11300D0232B208380B78B7F80BF0895423021F487
S11300E0FC012081622360830895613029F4FC01BE
S11300F031972FEF20830895FC013197108261110D
S113010007C02FEFFC01208380B78B7F80BF089549
S1130110623011F4FC0110820895C39A83ED90E3D8
S11301200197F1F700C00000C3980895CF93C82F3A
S11301308BB38F709C2F907F892B8BBB88B3897F67
S113014088BB0E948D008BB3282F2F7030E1C39F92
S1130150C0011124822B8BBB88B3897F88BB0E948A
S11301608D00CF91089510927F0010927E0081E05F
S11301700E949600089587E893E10197F1F700C083
S1130180000088B3817F88BB85EA9EE00197F1F780
S113019000C000000E94B30082E00E94960088E242
S11301A00E94960086E00E94960080E80E949600D5
S11301B08FE00E949600089580917E0090917F00C8
S11301C0019690937F0080937E008031910521F405
S11301D080EC0E9496000895809749F40E94B30031
S11301E080E80E94960010927F0010927E0008958D
S11301F0CF93C82F8BB38F709C2F907F892B8BBB91
S1130200C19AC2980E948D008BB3282F2F7030E1C1
S1130210C39FC0011124822B8BBBC19AC2988FE962
S113022096E821E0815090402040E1F700C00000B2
S11302300E948D003FE986E891E031508040904073
S1130240E1F700C000000E94DC002FE936E881E0FD
S1130250215030408040E1F700C00000CF91089564
S1130260CF93DF93EC018881882331F021960E949B
S1130270F80089918111FBCFDF91CF91089541E07E
S113028061E088E390E00E94490041E062E088E395
S113029090E00E94490041E063E088E390E00E941E
S11302A0490061E08BE390E00E9475000E94BB006E
S11302B083E294EF0197F1F700C0000080E690E03C
S10D02C00E943001FFCFF894FFCF35
S11302CA57656C636F6D6520546F204C6561726E5F
S11102DA20496E204465707468203A290000A3
S9030000FC
