S00C00004750494F2E73726563E9
S11300000C942A000C9434000C9434000C943400A6
S11300100C9434000C9434000C9434000C9434008C
S11300200C9434000C9434000C9434000C9434007C
S11300300C9434000C9434000C9434000C9434006C
S11300400C9434000C9434000C9434000C9434005C
S11300500C94340011241FBECFE5D8E0DEBFCDBF21
S11300600E9440000C945F000C940000D198D99831
S1130070B99AD798DF98BF9A80B7846080BF0895F3
S11300800E94360092E0C99905C088B3892788BBCD
S1130090C99BFECFCF9B0CC088B3805888BB2FE789
S11300A038E381E0215030408040E1F700C0000097
S11300B0EFE1FEE43197F1F700C00000E4CFF894DB
S10500C0FFCF6C
S9030000FC
