S0110000372D7365676D616E742E73726563C0
S11300000C942A000C943F000C943F000C943F0085
S11300100C943F000C943F000C943F000C943F0060
S11300200C943F000C943F000C943F000C943F0050
S11300300C943F000C943F000C943F000C943F0040
S11300400C943F000C943F000C943F000C943F0030
S11300500C943F0011241FBECFE5D8E0DEBFCDBF16
S113006010E0A0E6B0E0E0EEF0E002C005900D92F2
S1130070AA36B107D9F70E9445000C946E000C947F
S1130080000084B38FEF84BB08950E9441004AE6C8
S113009050E0E0E6F0E085B38F7085BB25B3919125
S11300A030E1939FC0011124822B85BBAB9A8FEF63
S11300B091EE24E0815090402040E1F700C0000020
S11300C0AA9A3FEF81EE94E0315080409040E1F7EE
S11300D000C00000E417F507F1F6DBCFF894FFCF7A
S10D00E000010203040506070809E5
S9030000FC
