:100000000C942A000C943F000C943F000C943F0089
:100010000C943F000C943F000C943F000C943F0064
:100020000C943F000C943F000C943F000C943F0054
:100030000C943F000C943F000C943F000C943F0044
:100040000C943F000C943F000C943F000C943F0034
:100050000C943F0011241FBECFE5D8E0DEBFCDBF1A
:1000600010E0A0E6B0E0E4EEF0E002C005900D92F2
:10007000A637B107D9F70E944D000C9470000C947C
:100080000000BC9ABF9ABD9ABE9881E58DB90895CB
:100090008FB9779BFECF8FB108950F931F93CF93A6
:1000A000DF938FEF8ABB0E944100C0E6D0E005E7F6
:1000B00010E02FE38DE093E0215080409040E1F785
:1000C00000C0000089910E9448008BBBC017D10777
:1000D00081F780E090E0DF91CF911F910F9108951B
:0400E000F894FFCFC2
:1000E4000001020304050607080910111213141570
:0600F40016171819200088
:00000001FF
