:100000000C942A000C9434000C9434000C943400AA
:100010000C9434000C9434000C9434000C94340090
:100020000C9434000C9434000C9434000C94340080
:100030000C9434000C9434000C9434000C94340070
:100040000C9434000C9434000C9434000C94340060
:100050000C94340011241FBECFE5D8E0DEBFCDBF25
:100060000E9446000C9453000C94000082B908953D
:1000700084EC86BF06B607FEFDCF83B1089583B931
:1000800084E886BF06B607FEFDCF089580ED0E9486
:100090003600C0E00E943800D1E0DC0F8C2F0E94B7
:0A00A0003F00CD2FF7CFF894FFCFFB
:00000001FF
