:100000000C942A000C9434000C9434000C943400AA
:100010000C9434000C9434000C9434000C94340090
:100020000C9434000C9434000C9434000C94340080
:100030000C9434000C9434000C9434000C94340070
:100040000C9434000C9434000C9434000C94340060
:100050000C94340011241FBECFE5D8E0DEBFCDBF25
:100060000E943D000C9485000C9400008898909AA2
:100070008F9A8E9A8D9A8C9A08950E94360020E469
:1000800090E2809B38C082B3805882BB3FEF40E74C
:1000900082E0315040408040E1F700C0000082B370
:1000A000822782BB3FEF40E782E0315040408040F2
:1000B000E1F700C0000082B3892782BB3FEF40E731
:1000C00082E0315040408040E1F700C00000949A47
:1000D0003FEF49E688E1315040408040E1F700C001
:1000E000000094983FEF49E688E13150404080405D
:1000F000E1F700C000003FEF40E782E031504040B0
:0E0100008040E1F700C00000BCCFF894FFCFB4
:00000001FF
