:020000040800F2
:1000000004100020A50000089900000899000008CD
:1000100099000008990000089900000880B483B096
:1000200000AF1A4B1B68194A43F004031360184BC6
:100030001B68174A23F470031360154B1B68144A9E
:1000400043F400131360134B1A68138843F40053EE
:10005000138000237B6002E07B6801337B607B6858
:1000600041F287329342F7DD0A4B1A6813886FF327
:100070004D33138000233B6002E03B6801333B605B
:100080003B6841F287329342F7DDDCE7181002400B
:10009000040801400000002080B500AF00F002F825
:1000A00000BF80BD80B586B000AF1A4A1A4BD31A84
:1000B0007B601A4B7B61184B3B610023FB600AE0BD
:1000C0007A69531C7B613B69591C396112781A703B
:1000D000FB680133FB60FB687A689A42F0D8104AEB
:1000E000104BD31A3B600F4B3B610023BB6007E012
:1000F0003B695A1C3A6100221A70BB680133BB602D
:10010000BB683A689A42F3D8FFF788FF00BF1837F8
:10011000BD4680BD0400002000000020280100082A
:0801200004000020040000208F
:040128000C0801407E
:0400000508000000EF
:00000001FF
