:100000000C942A000C9434000C9434000C943400AA
:100010000C9434000C9434000C9434000C94340090
:100020000C9434000C9434000C9434000C94340080
:100030000C9434000C9434000C9434000C94340070
:100040000C9434000C9434000C9434000C94340060
:100050000C94340011241FBECFE5D8E0DEBFCDBF25
:100060000E944D000C946D000C94000081E080B95A
:1000700011B8089584EA86BF06B607FEFDCF81B1A8
:100080008830E9F7089583B984E886BF06B607FE8D
:10009000FDCF089584E986BF08950E943600C0E030
:1000A0002FEF84E39CE0215080409040E1F700C0B6
:1000B00000000E943A0080ED0E94430081B1883127
:1000C000E9F7D1E0DC0F8C2F0E94430081B1883228
:0E00D000E9F70E944A00CD2FE3CFF894FFCF4E
:00000001FF
