S01200004932435F4D61737465722E7372656389
S11300000C942A000C9434000C9434000C943400A6
S11300100C9434000C9434000C9434000C9434008C
S11300200C9434000C9434000C9434000C9434007C
S11300300C9434000C9434000C9434000C9434006C
S11300400C9434000C9434000C9434000C9434005C
S11300500C94340011241FBECFE5D8E0DEBFCDBF21
S11300600E9454000C9473000C94000081E080B949
S113007011B8089584EA86BF06B607FEFDCF81B1A4
S11300808830E9F7089583B984E886BF06B607FE89
S1130090FDCF089584EC86BF06B607FEFDCF83B17D
S11300A0089584E986BF08958FEF8ABB0E943600C5
S11300B02FEF89E698E1215080409040E1F700C09D
S11300C000000E943A0081ED0E94430081B1803417
S11300D0E9F70E944A00C82F81B18035E9F70E94F0
S10D00E05100CBBBE5CFF894FFCF2D
S9030000FC
