S00C0000556172742E737265637C
S11300000C942A000C9447000C9447000C9447006D
S11300100C9447000C9447000C9447000C94470040
S11300200C9447000C9447000C9447000C94470030
S11300300C9447000C9447000C9447000C94470020
S11300400C9447000C9447000C9447000C94470010
S11300500C94470011241FBECFE5D8E0DEBFCDBF0E
S113006010E0A0E6B0E0E8EEF2E002C005900D92E8
S1130070A03CB107D9F720E0A0ECB0E001C01D928C
S1130080A53CB207E1F70E94FA000C9472010C94AB
S11300900000C39A2FE788E391E02150804090400C
S11300A0E1F700C00000C3980895CF93C82F8BB325
S11300B08F709C2F907F892B8BBB88B3897F88BBE3
S11300C00E9449008BB3282F2F7030E1C39FC001D9
S11300D01124822B8BBB88B3897F88BB0E94490083
S11300E0CF9108951092C1001092C00081E00E9447
S11300F0550008958FE39CE90197F1F700C00000D3
S113010087B38E6087BB88B3817F88BB8FEF8ABB40
S11301108FE295E70197F1F700C000000E9472009A
S113012082E00E94550088E20E94550086E00E9409
S1130130550080E80E9455008FE00E945500089504
S11301408091C0009091C10001969093C10080936A
S1130150C0008031910521F480EC0E94550008957F
S1130160809749F40E94720080E80E945500109222
S1130170C1001092C0000895CF93C82F8BB38F7025
S11301809C2F907F892B8BBBC19AC2980E944900F7
S11301908BB3282F2F7030E1C39FC0011124822B11
S11301A08BBBC19AC2988FE19EE40197F1F700C01E
S11301B000000E9449008FE19EE40197F1F700C01E
S11301C000000E94A0008FE19EE40197F1F700C0B7
S11301D00000CF910895CF93DF93EC0188818823A9
S11301E031F021960E94BC0089918111FBCFDF91EF
S11301F0CF9108950E947A000E9438012FE788E386
S113020091E0215080409040E1F700C0000082E975
S113021090E00E94EB002FEF80E792E021508040B5
S11302209040E1F700C000000E94720088E990E06D
S11302300E94460182EB90E00E9446010E94550113
S11302409093C3008093C2000E94EB002FEF81EED5
S113025094E0215080409040E1F700C000000E94EB
S113026072008FE39CE90197F1F700C00000E6CF2C
S1130270599888E18AB986E880BD10BC83E389B9BE
S1130280789408955D9BFECF8CB90895CF93DF9346
S1130290EC018881882331F021960E9442018991E2
S11302A08111FBCFDF91CF9108955F9BFECF9CB16D
S11302B09D3059F4E091C400F0E0E05AFF4F108201
S11302C01092C40080E690E008958091C400E82F65
S11302D0F0E0E05AFF4F90838F5F8093C40080E288
S10B02E090E00895F894FFCFAB
S11302E820000000000000000000000000000000E2
S11302F800000000000000000000000000000000F2
S113030800000000000000000000000000000000E1
S11303180000524541445900524541445920466F12
S11303287220526563656976696E672044617461F9
S11303380D00456E74657220446174613A200D00A5
S9030000FC
