:100000000C942A000C9447000C9447000C94470071
:100010000C9447000C9447000C9447000C94470044
:100020000C9447000C9447000C9447000C94470034
:100030000C9447000C9431010C9447000C94AF01D0
:100040000C9447000C9447000C9447000C94470014
:100050000C94470011241FBECFE5D8E0DEBFCDBF12
:1000600010E0A0E6B0E0E8E0F4E002C005900D92F8
:10007000A23AB107D9F720E0A2EAB0E001C01D9290
:10008000A83DB207E1F70E9412010C9402020C9401
:100090000000C39A2FE788E391E021508040904010
:1000A000E1F700C00000C3980895CF93C82F8BB329
:1000B0008F709C2F907F892B8BBB88B3897F88BBE7
:1000C0000E9449008BB3282F2F7030E1C39FC001DD
:1000D0001124822B8BBB88B3897F88BB0E94490087
:1000E000CF9108951092A3001092A20081E00E9487
:1000F00055000895813039F4603198F480E8860F16
:100100000E9455000895823061F4603150F480E11E
:1001100090E09093A3008093A20080EC860F0E9451
:10012000550008958FE39CE90197F1F700C00000A6
:1001300087B38E6087BB88B3817F88BB8FEF8ABB14
:100140008FE295E70197F1F700C000000E9472006E
:1001500082E00E94550088E20E94550086E00E94DD
:10016000550080E80E9455008FE00E9455000895D8
:100170008091A2009091A30001969093A300809398
:10018000A2008031910521F480EC0E945500089571
:10019000809749F40E94720080E80E9455001092F6
:1001A000A3001092A2000895CF93C82F8BB38F7035
:1001B0009C2F907F892B8BBBC19AC2980E944900CB
:1001C0008BB3282F2F7030E1C39FC0011124822BE5
:1001D0008BBBC19AC2988FE19EE40197F1F700C0F2
:1001E00000000E9449008FE19EE40197F1F700C0F2
:1001F00000000E94B8008FE19EE40197F1F700C073
:100200000000CF910895CF93DF93EC01888188237C
:1002100031F021960E94D40089918111FBCFDF91AA
:10022000CF9108950E9492000E94F8012FE788E381
:1002300091E0215080409040E1F700C0000080E64E
:1002400090E00E9403012FEF80E792E02150804070
:100250009040E1F700C000000E9472000E94F2018D
:10026000FFCF1F920F920FB60F9211242F933F933F
:100270004F935F936F937F938F939F93AF93BF93AE
:10028000EF93FF939CB19093A5009D3009F04BC074
:1002900086E690E00E94030160E082E00E947A001E
:1002A00083E790E00E9403012FE788E391E021506B
:1002B00080409040E1F700C000000E947200E09191
:1002C000A400F0E0EA55FF4F108282E890E00E941F
:1002D000030186EA90E00E9403011092A4000E94AC
:1002E000F5012FEF80E792E0215080409040E1F748
:1002F00000C0000081E48CB92FEF80E792E021502C
:1003000080409040E1F700C0000083E48CB92FEFFB
:1003100080E792E0215080409040E1F700C000006B
:100320008BE48CB90AC08091A400E82FF0E0EA5574
:10033000FF4F90838F5F8093A4005F9AFF91EF91AE
:10034000BF91AF919F918F917F916F915F914F91ED
:100350003F912F910F900FBE0F901F9018951F92F5
:100360000F920FB60F9211242F933F934F935F93E9
:100370006F937F938F939F93AF93BF93EF93FF936D
:100380000E9472002FE788E391E021508040904066
:10039000E1F700C0000086E690E00E94030160E003
:1003A00082E00E947A0083E990E00E9403012FE737
:1003B00088E391E0215080409040E1F700C00000C8
:1003C0005E9AFF91EF91BF91AF919F918F917F9135
:1003D0006F915F914F913F912F910F900FBE0F90B2
:1003E0001F90189580E98AB9089588E48AB908951C
:1003F000599888E18AB986E880BD10BC83E389B941
:0804000078940895F894FFCFF1
:1004080052454144590041636B6E6F776C65646770
:10041800653A005258494520456E61626C65203A3C
:100428002900526563656976696E67204461746165
:100438003A20005458494520456E61626C65203A5F
:02044800290089
:00000001FF
