:100000000C9448000C9465000C9465000C946500F9
:100010000C9465000C9465000C9465000C946500CC
:100020000C9465000C9465000C9465000C946500BC
:100030000C9465000C9465000C9465000C946500AC
:100040000C9465000C9465000C9465000C9465009C
:100050000C9465004E414E494E495459494E46CD87
:10006000CCCC3D0AD7233C17B7D13877CC2B32956F
:1000700095E6241FB14F0A000020410000C842004D
:10008000401C4620BCBE4CCA1B0E5AAEC59D740017
:1000900011241FBECFE5D8E0DEBFCDBF10E0A0E643
:1000A000B0E0EEEBF5E102C005900D92A038B1078B
:1000B000D9F720E0A0E8B0E001C01D92A53AB20750
:1000C000E1F70E9447030C94DD0A0C940000CF92E4
:1000D000DF92EF92FF92CF93DF937C01EB0160E020
:1000E00082E00E941002C7010E9445066B017C015C
:1000F000CE010E9445066C0D7D1D8E1D9F1D0E9428
:100100009502DF91CF91FF90EF90DF90CF9008950F
:10011000CF92DF92EF92FF92CF93DF937C01EB01BE
:1001200060E082E00E941002C7010E9445066B0158
:100130007C01CE010E944506A7019601261B370BC4
:10014000480B590BCA01B9010E949502DF91CF916A
:10015000FF90EF90DF90CF900895CF92DF92EF92D3
:10016000FF92CF93DF937C01EB0160E082E00E947D
:100170001002C7010E9445066B017C01CE010E945E
:100180004506A70196010E9417060E949502DF917D
:10019000CF91FF90EF90DF90CF900895CF92DF92B4
:1001A000EF92FF92CF93DF93EB010E9441066B0128
:1001B0007C01CE010E9441069B01AC01C701B60142
:1001C0000E9450046B017C0160E082E00E941002FA
:1001D000C701B6010E94C302DF91CF91FF90EF905B
:1001E000DF90CF90089581B3807F81BB81B3806F12
:1001F00081BB8FEF82BB0895EF92FF920F931F9305
:10020000CF93DF93C0E6D0E060E070E0DE0141E034
:1002100050E092B3FA010C9002C0EE0FFF1F0A9457
:10022000E2F79A0112960C90129702C0220F331F28
:100230000A94E2F72E2B822F892B9A0114960C90A8
:10024000149702C0220F331F0A94E2F7282BCA0129
:1002500016960C90169702C0880F991F0A94E2F721
:10026000822B82BB92B3888122969A0102C0220F10
:10027000331F8A95E2F7822F8095892382BBE8E6B7
:10028000F0E0EE24E394F12C00E010E005C00F5FF5
:100290001F4F8FEFE81AF80A80B32081329690E062
:1002A000022E02C0959587950A94E2F780FD50C012
:1002B000CA0102C0880F991F2A95E2F79C0180B3FA
:1002C00090E082239323892BD1F361307105C9F02B
:1002D00024F46115710541F03BC062307105F1F005
:1002E0006330710541F134C001151105F1F10130A0
:1002F0001105E9F102301105E1F10330110541F575
:100300003AC001151105C9F101301105C1F10230E2
:100310001105B9F103301105D9F435C001151105E6
:10032000A1F10130110599F10230110591F103306D
:10033000110571F430C00115110579F10130110575
:1003400071F10230110569F10330110571F52BC00F
:1003500094E0E916F1040CF49ACF6F5F7F4F64309C
:10036000710509F056CF81E426C087E324C084E3F9
:1003700022C081E320C08FE31EC088E31CC085E358
:100380001AC082E318C080E316C089E314C086E374
:1003900012C083E310C08DE30EC08FE20CC08AE26E
:1003A0000AC08DE208C08BE206C084E0E816F104C2
:1003B0000CF46DCF81E4DF91CF911F910F91FF90ED
:1003C000EF900895C39A83ED90E30197F1F700C091
:1003D0000000C39808958AB31ABAC29AC1980E94BD
:1003E000E2018AB38FEF8ABBC2980895CF93C82FDA
:1003F0000E94EB01CBBB88B3897F88BB89EF90E07B
:100400000197F1F700C000000E94E201CF9108952A
:10041000109281001092800081E00E94F601089500
:10042000813039F4603198F480E8860F0E94F6013B
:100430000895823061F4603150F480E190E090934F
:1004400081008093800080EC860F0E94F601089561
:1004500087E893E10197F1F700C0000087B38E6051
:1004600087BB88B3817F88BB8FEF8ABB85EA9EE01C
:100470000197F1F700C000000E94080288E30E9483
:10048000F60186E00E94F60180E80E94F6018FE006
:100490000E94F6010895809180009091810001965C
:1004A00090938100809380008031910521F480EC4D
:1004B0000E94F6010895809749F40E94080280E89E
:1004C0000E94F60110928100109280000895CF934F
:1004D000C82F0E94EB01CBBBC298C19A89EF90E074
:1004E0000197F1F700C000000E94E20189EF90E05F
:1004F0000197F1F700C000000E944B0289EF90E0E5
:100500000197F1F700C00000CF910895CF93DF93DA
:10051000EC018881882331F021960E94670289913D
:100520008111FBCFDF91CF9108950F931F93CF934C
:10053000DF93CDB7DEB760970FB6F894DEBF0FBE7E
:10054000CDBF9F938F937F936F9380E790E09F93AE
:100550008F938E010F5F1F4F1F930F930E94810691
:10056000C8010E9486020FB6F894DEBF0FBECDBF51
:1005700060960FB6F894DEBF0FBECDBFDF91CF916E
:100580001F910F9108958F929F92AF92BF92CF9239
:10059000DF92EF92FF920F931F93CF93DF93CDB72C
:1005A000DEB760970FB6F894DEBF0FBECDBF6B010C
:1005B0007C0120E030E0A9010E944B04882364F014
:1005C00020E030E0A901C701B6010E944B04882356
:1005D00054F405E710E002C004E710E0F7FAF094E5
:1005E000F7F8F09402C005E710E0C701B6010E94D9
:1005F000C2044B015C01072E000C880B990B0E9472
:10060000FA049B01AC01C701B6010E94DE0320E0A1
:1006100030E04AE754E40E94AA050E94C2047F9396
:100620006F939F928F921F930F9386E790E09F9313
:100630008F938E010F5F1F4F1F930F930E948106B0
:10064000C8010E9486020FB6F894DEBF0FBECDBF70
:1006500060960FB6F894DEBF0FBECDBFDF91CF918D
:100660001F910F91FF90EF90DF90CF90BF90AF90D0
:100670009F908F900895E3E9F0E0A3E8B0E083EA6B
:1006800090E011921D92E817F907D9F708950E949A
:1006900028020E94F30083ED90E30197F1F700C078
:1006A0000000E12CF12C00E010E0D12CD0E0BB24C4
:1006B000B394C12C0E94FC00C82F8F3319F08134F1
:1006C000C9F30BC00E9408020E943B0310928200F3
:1006D000E12CF12C0D2D1D2FEDCF0E9467028C2FE8
:1006E0008D7F8D3221F086ED8C0F823038F4C093EF
:1006F0008200E12CF12C0B2D1C2D18C001151105C9
:1007000041F4F701ED56FF4FC0839FEFE91AF90A54
:100710000DC00130110551F4CD3351F0F701ED5703
:10072000FF4FC0838FEFE81AF80AC4CFCD3311F61C
:10073000809182008B3269F463E870E083E990E095
:100740000E94670010928200E12CF12C0D2D1D2FCC
:100750002BC0809182008D3239F563E870E083E927
:1007600090E00E94880010928200E12CF12C0D2D67
:100770001D2F1EC063E870E083E990E00E94AD0089
:1007800010928200E12CF12C0D2D1D2F93CF63E8E8
:1007900070E083E990E00E94CE0010928200E12C8C
:1007A000F12C0D2D1D2F86CF809182008A3211F3FE
:1007B000809182008F3209F07DCFE9CF5058BB275E
:1007C000AA270E94F6030C9470050E94620538F077
:1007D0000E94690520F039F49F3F19F426F40C9427
:1007E0005F050EF4E095E7FB0C945905E92F0E9494
:1007F000810558F3BA17620773078407950720F03D
:1008000079F4A6F50C94A3050EF4E0950B2EBA2FFF
:10081000A02D0B01B90190010C01CA01A001112406
:10082000FF27591B99F0593F50F4503E68F11A16B2
:10083000F040A22F232F342F4427585FF3CF469543
:1008400037952795A795F0405395C9F77EF41F1665
:10085000BA0B620B730B840BBAF09150A1F0FF0F2F
:10086000BB1F661F771F881FC2F70EC0BA0F621F1B
:10087000731F841F48F4879577956795B795F7950B
:100880009E3F08F0B0CF9395880F08F09927EE0FA0
:100890009795879508950E94350508F481E008959D
:1008A0000E9464040C9470050E94690558F00E942F
:1008B000620540F029F45F3F29F00C94590551116D
:1008C0000C94A4050C945F050E94810568F399239C
:1008D000B1F3552391F3951B550BBB27AA2762173C
:1008E0007307840738F09F5F5F4F220F331F441F49
:1008F000AA1FA9F335D00E2E3AF0E0E832D091507D
:100900005040E695001CCAF72BD0FE2F29D0660F69
:10091000771F881FBB1F261737074807AB07B0E8AC
:1009200009F0BB0B802DBF01FF2793585F4F3AF0B2
:100930009E3F510578F00C9459050C94A4055F3F37
:10094000E4F3983ED4F3869577956795B795F79538
:100950009F5FC9F7880F911D9695879597F9089520
:10096000E1E0660F771F881FBB1F621773078407BC
:10097000BA0720F0621B730B840BBA0BEE1F88F7CB
:10098000E09508950E94C9046894B1110C94A405DF
:1009900008950E94890588F09F5798F0B92F9927EC
:1009A000B751B0F0E1F0660F771F881F991F1AF05A
:1009B000BA95C9F714C0B13091F00E94A305B1E017
:1009C00008950C94A305672F782F8827B85F39F016
:1009D000B93FCCF3869577956795B395D9F73EF4F3
:1009E00090958095709561957F4F8F4F9F4F08959B
:1009F000E89409C097FB3EF49095809570956195B9
:100A00007F4F8F4F9F4F9923A9F0F92F96E9BB276E
:100A10009395F695879577956795B795F111F8CFEA
:100A2000FAF4BB0F11F460FF1BC06F5F7F4F8F4F55
:100A30009F4F16C0882311F096E911C0772321F04B
:100A40009EE8872F762F05C0662371F096E8862FE3
:100A500070E060E02AF09A95660F771F881FDAF73A
:100A6000880F9695879597F90895990F0008550F67
:100A7000AA0BE0E8FEEF16161706E807F907C0F024
:100A800012161306E407F50798F0621B730B840B2C
:100A9000950B39F40A2661F0232B242B252B21F406
:100AA00008950A2609F4A140A6958FEF811D811DA6
:100AB000089597F99F6780E870E060E008959FEFE0
:100AC00080EC089500240A941616170618060906E5
:100AD000089500240A9412161306140605060895B4
:100AE000092E0394000C11F4882352F0BB0F40F43C
:100AF000BF2B11F460FF04C06F5F7F4F8F4F9F4F7C
:100B0000089557FD9058440F551F59F05F3F71F0FD
:100B10004795880F97FB991F61F09F3F79F0879564
:100B20000895121613061406551FF2CF4695F1DFED
:100B300008C0161617061806991FF1CF869571057D
:100B4000610508940895E894BB2766277727CB01B1
:100B500097F908950E94BD050C9470050E946205E6
:100B600038F00E94690520F0952311F00C94590586
:100B70000C945F0511240C94A4050E94810570F368
:100B8000959FC1F3950F50E0551F629FF001729F32
:100B9000BB27F00DB11D639FAA27F00DB11DAA1F41
:100BA000649F6627B00DA11D661F829F2227B00D8E
:100BB000A11D621F739FB00DA11D621F839FA00D19
:100BC000611D221F749F3327A00D611D231F849F69
:100BD000600D211D822F762F6A2F11249F575040C0
:100BE0009AF0F1F088234AF0EE0FFF1FBB1F661F3B
:100BF000771F881F91505040A9F79E3F510580F004
:100C00000C9459050C94A4055F3FE4F3983ED4F38B
:100C1000869577956795B795F795E7959F5FC1F7A7
:100C2000FE2B880F911D9695879597F90895DB0106
:100C30008F939F930E942706BF91AF91A29F800D33
:100C4000911DA39F900DB29F900D112408950E94B5
:100C50003206A59F900DB49F900DA49F800D911D0D
:100C600011240895A29FB001B39FC001A39F700DEE
:100C7000811D1124911DB29F700D811D1124911DA4
:100C80000895662777270C9484081F93FC01992701
:100C90008827BC01E89411911032E9F3193010F063
:100CA0001E30C8F31B3251F01D3249F4689406C05F
:100CB0000E946C06610F711D811D911D11911053D1
:100CC0001A30B0F33EF490958095709561957F4F02
:100CD0008F4F9F4F1F910895592F482F372F262F41
:100CE000660F771F881F991F660F771F881F991F30
:100CF000620F731F841F951F660F771F881F991F30
:100D00000895AEE0B0E0E7E8F6E00C94B40A0D898F
:100D10001E8986E08C831A8309838FEF9FE79E8369
:100D20008D83AE01475E5F4F6F89788DCE0101964E
:100D30000E94A306EF81F885E00FF11F10822E9626
:100D4000E4E00C94D00AABE0B0E0E9EAF6E00C9401
:100D5000A60A6C017B018A01FC011782168283813D
:100D600081FFCCC1CE0101963C01F6019381F701D0
:100D700093FD859193FF81917F01882309F4BAC186
:100D8000853239F493FD859193FF81917F018532FE
:100D900029F4B60190E00E94090AE7CF912C212C9A
:100DA000312CFFE1F315D8F08B3279F038F4803232
:100DB00079F08332A1F4232D20611DC08D3261F0C2
:100DC000803369F4232D216016C0832D8260382E74
:100DD000E32DE4603E2E2AC0F32DF8601DC037FCE1
:100DE0002DC020ED280F2A3040F08E32B9F436FCA9
:100DF00081C1232D2064322E19C036FE06C08AE040
:100E0000989E200D1124922E11C0EAE02E9E200DF6
:100E10001124222EF32DF0623F2E08C08C3621F4CF
:100E2000832D8068382E02C0883641F4F70193FD87
:100E3000859193FF81917F018111B3CF982F9F7D81
:100E40009554933028F40C5F1F4F9FE399830DC096
:100E5000833631F0833771F0833509F059C021C0F2
:100E6000F801808189830E5F1F4F88248394912C21
:100E7000530113C02801F2E04F0E511CF801A0806D
:100E8000B18036FE03C0692D70E002C06FEF7FEFC6
:100E9000C5010E94FE094C018201F32DFF773F2E10
:100EA00016C0280122E0420E511CF801A080B1803A
:100EB00036FE03C0692D70E002C06FEF7FEFC50101
:100EC0000E94F3094C01F32DF0683F2E820133FCA0
:100ED0001BC0822D90E088169906B0F4B60180E21E
:100EE00090E00E94090A2A94F4CFF50137FC85911D
:100EF00037FE81915F01B60190E00E94090A21103E
:100F00002A9421E0821A91088114910471F7E8C0B3
:100F1000843611F0893641F5F80137FE07C060814B
:100F20007181828193810C5F1F4F08C06081718144
:100F3000072E000C880B990B0E5F1F4FF32DFF76C9
:100F40003F2E97FF09C090958095709561957F4FD2
:100F50008F4F9F4FF0683F2E2AE030E0A3010E94A0
:100F6000450A882E861845C0853731F4232D2F7EFB
:100F7000B22E2AE030E025C0932D997FB92E8F360E
:100F8000C1F018F4883579F0B5C0803719F088378A
:100F900021F0B0C0E92FE061BE2EB4FE0DC0FB2DE4
:100FA000F460BF2E09C034FE0AC0292F2660B22E7D
:100FB00006C028E030E005C020E130E002C020E1BA
:100FC00032E0F801B7FE07C06081718182819381B0
:100FD0000C5F1F4F06C06081718180E090E00E5F62
:100FE0001F4FA3010E94450A882E8618FB2DFF770C
:100FF0003F2E36FE0DC0232D2E7FA22E891458F4CD
:1010000034FE0BC032FC09C0832D8E7EA82E05C095
:10101000B82CA32C03C0B82C01C0B92CA4FE0FC05F
:10102000FE01E80DF11D8081803321F49A2D997E17
:10103000A92E09C0A2FE06C0B394B39404C08A2DA1
:10104000867809F0B394A3FC11C0A0FE06C0B214C8
:1010500088F4280C922C9B180EC0B21460F4B601D0
:1010600080E290E00E94090AB394F7CFB21418F41A
:101070002B1802C0982C212CA4FE10C0B60180E3CE
:1010800090E00E94090AA2FE17C0A1FC03C088E7F5
:1010900090E002C088E590E0B6010CC08A2D867809
:1010A00059F0A1FE02C08BE201C080E2A7FC8DE2F4
:1010B000B60190E00E94090A891438F4B60180E371
:1010C00090E00E94090A9A94F7CF8A94F301E80D00
:1010D000F11D8081B60190E00E94090A8110F5CFD0
:1010E000222009F442CEB60180E290E00E94090A73
:1010F0002A94F6CFF6018681978102C08FEF9FEF89
:101100002B96E2E10C94C20AA0E0B0E0EAE8F8E035
:101110000C94AC0AEC016B016115710519F0FB012F
:10112000918380837E01FFEFEF1AFF0A0881802FF1
:1011300090E00E94D209892B11F0E701F3CF0D3224
:1011400039F47E0182E0E80EF11C098111E008C04B
:101150000B3229F47E0192E0E90EF11C098110E0C6
:10116000E701219743E050E06CE570E0CE010E947A
:10117000DB09892BC1F4239645E050E067E570E078
:10118000CE010E94DB09892B09F42596C114D104F4
:1011900019F0F601D183C0831111F6C060E070E050
:1011A00080E89FE7FAC043E050E064E570E0CE01DC
:1011B0000E94DB09892B59F4C114D10409F4E9C058
:1011C000F2E0EF0EF11CF601F182E082E2C020E0D5
:1011D00030E0A901C0E0D0E0F70180EDA82EA00E1C
:1011E00089E08A1530F1912F9260B92E812F887095
:1011F00012FF04C0811124C0219622C081112197C1
:10120000A5E0B0E00E942706DC01CB01880F991F02
:10121000AA1FBB1F9C01AD012A0D311D411D511D8F
:10122000283989E93807480789E1580748F01660E6
:1012300006C09EEFA9120AC013FD40C01860B12E6F
:101240008FEFE81AF80A00811B2DC6CF802F8F7D03
:101250008534A1F580818D3211F4106106C08B3286
:1012600021F0319661E070E004C08181329662E045
:1012700070E080538A3018F0E61BF70B1FC060E067
:1012800070E060389CE079075CF4DB01AA0FBB1FBB
:10129000AA0FBB1F6A0F7B1F660F771F680F711D98
:1012A0003196DF0111978C9180538A3050F314FFEF
:1012B00003C0719561957109C60FD71F11FF08C052
:1012C000C114D10429F0CF010197F60191838083E5
:1012D000CA01B9010E94F804212F2370233019F0AC
:1012E0004B015C0106C04B015C01B7FAB094B7F842
:1012F000B09420E030E0A901C501B4010E944B0484
:10130000882309F43EC0D7FF06C0D195C195D10905
:1013100003E710E002C00BE810E06801F8E1CF1A23
:10132000D10890E2E92EF12CCE15DF0574F0F8011A
:101330002591359145915491C501B4010E94AA05AA
:101340004B015C01CE19DF09EFCF04501109F59470
:10135000E7940C151D0541F78A2D880F8B2D881FEA
:101360008F3F49F020E030E0A901C501B4010E949F
:101370004B04811106C082E290E09093A400809318
:10138000A300C501B40109C060E070E080E89FEFF0
:1013900004C060E070E080EC9FE7CDB7DEB7ECE022
:1013A0000C94C80A91110C94A30A803219F0895048
:1013B0008550C8F70895FB01DC014150504088F08A
:1013C0008D9181341CF08B350CF4805E6591613415
:1013D0001CF06B350CF4605E861B611171F3990B88
:1013E0000895881BFCCFFC010590615070400110EE
:1013F000D8F7809590958E0F9F1F0895FC0161503E
:10140000704001900110D8F7809590958E0F9F1F26
:1014100008950F931F93CF93DF93FB01238121FD49
:1014200003C08FEF9FEF2CC022FF16C0468157816B
:10143000248135814217530744F4A081B1819D0175
:101440002F5F3F4F318320838C93268137812F5F1D
:101450003F4F3783268314C08B01EC01FB010084CE
:10146000F185E02D0995892BE1F6D80116968D912D
:101470009C911797019617969C938E931697CE0181
:10148000DF91CF911F910F910895FA01AA2728307B
:1014900051F1203181F1E8946F936E7F6E5F7F4F41
:1014A0008F4F9F4FAF4FB1E03ED0B4E03CD0670FBD
:1014B000781F891F9A1FA11D680F791F8A1F911D10
:1014C000A11D6A0F711D811D911DA11D20D009F460
:1014D00068943F912AE0269F11243019305D3193A2
:1014E000DEF6CF010895462F4770405D4193B3E08B
:1014F0000FD0C9F7F6CF462F4F70405D4A3318F032
:10150000495D31FD4052419302D0A9F7EACFB4E0E2
:10151000A6959795879577956795BA95C9F700979A
:101520006105710508959B01AC010A2E069457953B
:10153000479537952795BA95C9F7620F731F841F92
:10154000951FA01D08959927882708952F923F92EF
:101550004F925F926F927F928F929F92AF92BF92C3
:10156000CF92DF92EF92FF920F931F93CF93DF936F
:10157000CDB7DEB7CA1BDB0B0FB6F894DEBF0FBECC
:10158000CDBF09942A88398848885F846E847D8419
:101590008C849B84AA84B984C884DF80EE80FD801B
:1015A0000C811B81AA81B981CE0FD11D0FB6F89491
:0E15B000DEBF0FBECDBFED010895F894FFCF52
:1015BE000400050006000700000001000200030001
:1015CE00256C69002D00257325642E2530336400AB
:00000001FF
