:100000000C942A000C9434000C9434000C943400AA
:100010000C9434000C9434000C9434000C94340090
:100020000C9434000C9434000C9434000C94340080
:100030000C9434000C9434000C9434000C94340070
:100040000C9434000C9434000C9434000C94340060
:100050000C94340011241FBECFE5D8E0DEBFCDBF25
:100060000E944A000C945C000C94000082B9089530
:1000700084EC86BF06B607FEFDCF81B18036E9F776
:1000800084EC86BF06B607FEFDCF81B18038E9F764
:1000900083B108958FEF8ABB80ED0E9436002FEF69
:1000A00084E39CE0215080409040E1F700C00000D4
:0C00B0000E9438008BBBF3CFF894FFCF08
:00000001FF
