:1000000000100020290000001D0000001D0000005D
:100010001D0000001D0000001D00000080B500AFA5
:1000200000F002F800BF80BD80B586B000AF1A4A6C
:100030001A4BD31A7B601A4B7B61184B3B61002330
:10004000FB600AE07A69531C7B613B69591C39618A
:1000500012781A70FB680133FB60FB687A689A4279
:10006000F0D8104A104BD31A3B600F4B3B61002372
:10007000BB6007E03B695A1C3A6100221A70BB68FA
:100080000133BB60BB683A689A42F3D800F00EF8BF
:1000900000BF1837BD4680BD0000002000000020D2
:1000A00038010000000400200000002080B483B06C
:1000B00000AF1D4B20221A6000237B6002E07B68AA
:1000C00001337B607B68C72BF9D9184B1B68174A33
:1000D00043F008031360164B1B68154A43F00803EE
:1000E0001360144B1B68134A43F00803136000238A
:1000F0007B6002E07B6801337B607B6844F61F62B3
:100100009342F7D90B4B1B680A4A23F0080313608C
:1001100000237B6002E07B6801337B607B6844F6F0
:100120001F629342F7D9DCE708E10F400054024018
:080130001C550240FC53024083
:00000001FF
